:020000040000FA
:08000000803102288731F82F3E
:100C84000834863175268631230011140800863114
:100C9400752686312300111508002F00960197014F
:100CA400980199019A019B010800623031008D007E
:100CB4008F019101023093009201080086314F2682
:100CC40086318631FD2686318631572686310800E5
:100CD40028302300900091018F0127308D002000DF
:100CE40093151316080023000F19792E7A2E752EEA
:100CF40011081F39031D7F2E802E752E0800F00069
:100D0400863175268631700823008C002E000F1C56
:100D14008C2E8D2E882E0F10230011080800F10050
:100D2400863143268631200020088631812686318B
:100D340071082000210486318126863186314926B6
:100D440086310800F3007D08F2007208F30473088A
:100D540004388631912686317308FB398631912611
:100D640086310430890BB42E0800F500FD017508A6
:100D7400F0398631A42686317508F4000330F43541
:100D8400FF3E031DC12E7435F0398631A426863109
:100D94000800F500FD01FD0A7508F0398631A42626
:100DA40086317508F4000330F435FF3E031DD62E5A
:100DB4007435F0398631A42686310800F901FA0128
:100DC400F12E76087907840077087A3D85000008BB
:100DD4008631CB2686310130F9070030FA3D76089A
:100DE4007907840077087A3D85001200031DFB2EE5
:100DF400FC2EE32E08002000960197019801FF3095
:100E04009100FF309200FF309300FF303E00CE008F
:100E1400FF30C300FF30B800E501C401B901CF01C0
:100E2400BA01C501D001FF30BB00FF30C600FF305E
:100E3400D100FF30BC00FF30C700FF30D2000830C3
:100E4400E8000800F9003E2F7608BF3E8631B72639
:100E54008731512F7608933E8631B7268731512F3B
:100E64007608D33E8631B7268731512F76087F3EE8
:100E74008631B7268731512F7908F700F8017808B1
:100E8400003A0319462F382F7708023A0319262F00
:100E9400013A03192C2F073A0319322F382F08006F
:100EA4008631602687312000911086316A26873189
:100EB4004E3087319527873120008C100230FC009A
:100EC4004530FB00AA30890B652FFB0B652FFC0B0B
:100ED400652F20008C140230FC004530FB00AA3042
:100EE400890B722FFB0B722FFC0B722FF601F60A83
:100EF40001308731242787310030F6008830F7002D
:100F04008631E0268731F601F60A0230873124273C
:100F140087310E30F6008830F7008631E0268731BD
:100F24005E2F80310228F7007708F600760820004B
:100F3400A00000308631912687310A30F600BC309B
:100F4400890BA22FF60BA22F003203308631B7266D
:100F54008731FA300032890BAC2F03308631B72643
:100F64008731FA300032890BB42F03308631B7262B
:100F74008731FA300032890BBC2F02308631B72614
:100F84008731FA300032890BC42F28308631B726D6
:100F940087311130F6003A30890BCE2FF60BCE2F65
:100FA40000320C308631B72687311130F6003A30E2
:100FB400890BDA2FF60BDA2F003201308631B7268F
:100FC40087311130F6003A30890BE62FF60BE62F05
:100FD400003206308631B72687311130F6003A30B8
:100FE400890BF22FF60BF22F0032080086314226CD
:100FF4008731A100FD0120008731522F20344B346A
:10100400683461346C346534643420344D34613470
:1010140067346434793400342034443465346534BA
:0C102400703442346C3475346534003490
:020000040001F9
:0A000E00EC3FFF3F9F3FFF3FFF3F25
:00000001FF
